:1000000000800020BD010000752000007520000068
:1000100075200000752000007520000041200000C0
:100020004120000041200000412000007520000018
:1000300075200000412000007520000031200000E4
:10004000752000007520000075200000752000005C
:10005000752000007520000075200000752000004C
:10006000752000007520000075200000752000003C
:10007000752000007520000075200000752000002C
:10008000752000007520000075200000752000001C
:10009000752000007520000075200000752000000C
:1000A00075200000752000007520000075200000FC
:1000B00075200000752000007520000075200000EC
:1000C00075200000752000007520000075200000DC
:1000D00075200000752000007520000075200000CC
:1000E00075200000752000007520000075200000BC
:1000F00075200000752000007520000075200000AC
:10010000752000007520000075200000752000009B
:10011000752000007520000075200000752000008B
:10012000752000007520000075200000752000007B
:10013000752000007520000075200000752000006B
:10014000752000007520000075200000752000005B
:10015000752000007520000075200000752000004B
:1001600075200000D52500007520000075200000D6
:10017000752000007520000075200000752000002B
:10018000752000007520000075200000752000001B
:10019000752000007520000075200000112100006E
:1001A00061210000E9210000A522000029230000B0
:1001B000752000007520000075200000544B4CF2A3
:1001C000205210B51A804DF628121A8000BF00BFC9
:1001D00001F054FF4F4B4FF010621A604E4A9A6084
:1001E0004E4ADA604E4B1A6812F4807204D14D49BF
:1001F0000A604FF4A8521A604B4B1A7802F00802BA
:10020000D2B21AB11A7842F008021A70474B484825
:10021000484C2A221A700023474A02E01959995083
:10022000043399188142F9D3444B454A002101E037
:1002300043F8041B9342FBD34249434800231A5816
:100240005A500433B3F5DE7FF9D1404B404A802148
:1002500003F8011B9342FBD13A4A3E4B1A603E4BD6
:100260000A221A703D4B24221A70A02203F8012C96
:100270003B4A137803F00203DBB2002BF9D0384A73
:10028000137803F01003DBB2002BF9D1344A137852
:1002900003F00C03082BFAD1324B03221A704022D0
:1002A0005A702F4A137803F02003DBB2002BF9D0E9
:1002B0002B4A137803F04003DBB2002BF9D02A4B12
:1002C0002A4A1A6002225A60294B20221A70244AB4
:1002D000137803F00C030C2BFAD1264A264B1A6034
:1002E000264B274A1A60072243F8042C62B602F014
:1002F00093F80C4B1B68DC0702D5224802F02CF85F
:1003000003F03EFD01F0C0FE02F0A4FDFEE700BFD9
:100310000E20054030800440823F04000100002B85
:1003200010D0034014D0034002D0074000E0074043
:10033000409BFF1F489100006095FF1F409BFF1FDF
:100340002CB9FF1F0090FF1F0000000000E400E038
:100350005FE400E008ED00E0005006400140064088
:10036000064006400440064044800440000003016B
:1003700000400640C01005000480044014E000E086
:10038000FF76010004887454FFFFFFFFFFFFFFFFAB
:10039000FFFFFFFFFFFFFFFFFFFFFFFFFFFFFFFF6D
:1003A000FFFFFFFFFFFFFFFFFFFFFFFFFFFFFFFF5D
:1003B000FFFFFFFFFFFFFFFFFFFFFFFFFFFFFFFF4D
:1003C000FFFFFFFFFFFFFFFFFFFFFFFFFFFFFFFF3D
:1003D000FFFFFFFFFFFFFFFFFFFFFFFFFFFFFFFF2D
:1003E000FFFFFFFFFFFFFFFFFFFFFFFFFFFFFFFF1D
:1003F000FFFFFFFFFFFFFFFFFFFFFFFFFFFFFFFF0D
:10040000FFFFFFFFFFFFFFFFFFFFFFFFFEFFFFFFFD
:1004100008B549F64030074BC1F6FF701B1A062B92
:1004200000D808BD40F20003C0F20003002BF8D052
:100430009847F6E7439BFF1F08B549F6403049F659
:100440004033C1F6FF70C1F6FF731B1A9B1003EB1C
:10045000D373591000D108BD40F20002C0F200026F
:10046000002AF8D09047F6E710B549F64034C1F6B7
:10047000FF74237873B9FFF7CBFF40F20003C0F29B
:1004800000032BB149F24810C0F20000AFF3008026
:100490000123237010BD00BF08B540F20003C0F275
:1004A00000034BB149F2481049F64431C0F2000054
:1004B000C1F6FF71AFF3008049F64030C1F6FF701E
:1004C00003682BB140F20003C0F2000303B1984768
:1004D000BDE80840FFF7B0BF10B50B4C01210D205F
:1004E00001F04AFF204601F051F92046C82100F0F2
:1004F00099FA2046062100F08DFB20460121BDE837
:10050000104000F043BA00BF5C9BFF1FFFFFFFFFDE
:100510002DE9F0438A488B4C8B498C4EDFF838929A
:100520008DB000F0A7FD0121854800F049FEA378B9
:10053000228883488DF82A300AA9ADF8282000F0D7
:1005400063FB00217E4800F037FB28217C4800F047
:1005500039FB02217A4800F04FFB012278487C49A0
:1005600000F0D0FA7648317800F056FA34F8032FCC
:10057000D9F8003072480593A378ADF828200AA96D
:100580008DF82A30DDF8148000F074FD01216C48EC
:1005900000F016FE01216A4800F07CFD684800F07A
:1005A00035FA33786427B3FBF7F33033DBB200243A
:1005B000FF2540F34F020221009361488DF8285037
:1005C0000AAB8DF829408DF82A4000F06BFD4FF4FE
:1005D000FA7001F00BFF0121594800F0F1FD584875
:1005E00000F014FA33788DF82850B3FBF7F107FBCD
:1005F0001133DBB20A27B3FBF7F33033DBB240F33E
:100600004F02082100934E488DF829400AAB8DF81F
:100610002A4000F047FD4FF4FA7001F0E7FE012197
:10062000474800F0CDFD464800F0F0F933788DF8EA
:100630002850B3FBF7F107FB11333033DBB240F343
:100640004F020E2100933E488DF829400AAB8DF8E9
:100650002A4000F027FD4FF4FA7001F0C7FE012197
:10066000374800F0ADFD364800F0D0F9482340F39C
:100670004F021421009332488DF828500AAB8DF8B0
:1006800029408DF82A4000F00DFD4FF4FA7001F07A
:10069000ADFE01212A4800F093FD294800F0B6F98B
:1006A0007A2340F34F021A21009325488DF82850F1
:1006B0000AAB8DF829408DF82A4000F0F3FC4FF486
:1006C000FA7001F093FE1E48012100F079FD08F553
:1006D000AB584FF4FA7001F089FE08F11C084A4645
:1006E00013680693069B4345FAD3184B14481A78AF
:1006F00001321A700024FF230AA98DF828308DF8E2
:1007000029408DF82A4000F07FFA0D48214600F07C
:1007100053FA0B48282100F055FA0948022100F04D
:100720006BFA07480B49012200F0ECF9044801215B
:1007300000F0B0FC084B1B680793DDF81C80C1E09B
:100740005C9BFF1F8C550000D85500006495FF1F6F
:1007500092550000AC550000F0B7FF1F1B680893CE
:10076000089803F0DFF80446404603F0DBF8014642
:10077000204603F025F85E4903F0E0F94FF07E5182
:10078000044603F0E3FA28B121464FF0804003F01D
:1007900017F80446204602F061FD53A3D3E9002375
:1007A00002F0B0FD02F0C0FF0446E1B2514800F093
:1007B00039F9514B0493514B18681B790A906427FF
:1007C0008DF82C3094FBF7F30A2603F1300207FB77
:1007D000134393FBF6F330338DF8113094FBF6F3AB
:1007E00006FB1343303320468DF810208DF812306D
:1007F00002F022FD0022424B02F084FD3AA3D3E92D
:10080000002302F0A9FE00223D4B04460D4602F0F3
:10081000A3FE00223B4B02F0C3FB02F0ADFF2946D2
:100820008DF82800204602F07FFF90FBF7F307FBCE
:10083000130790FBF6F306FB130097FBF6F7303037
:1008400030378DF82A002B488DF8297000F0D6FC3F
:100850000024064625462C4F0AE0FA68135D12195B
:100860003355331951785970927801359A700334A1
:10087000204800F0CBF8B5EB401FEEDB0C2104ABB9
:100880000024FF2500931B488DF80C500DEB01034D
:1008900010228DF80D408DF80E4000F02FFC0C2139
:1008A0000AAB009313488DF80C500DEB010318228E
:1008B0008DF80D408DF80E4000F020FC0D48012110
:1008C00000F07EFC114B1A680992099941F65732E3
:1008D000C8EB010191427FF641AF0648C82100F004
:1008E000A1F80DB0BDE8F0830000000000E06F400B
:1008F00000C05A455C9BFF1F30303000D3550000CC
:1009000000005940000048407C490000F0B7FF1F3C
:10091000014800F0C3BC00BF5C9BFF1F002380E8C0
:100920000A008360704782680068131A5842584171
:10093000704783684268D218036892FBF3F003FBA8
:100940001020704742680368013292FBF3F103FB09
:10095000112343608368013B8360704783680268AA
:10096000934207D14268013292FBF3F103FB11235A
:1009700043607047013383607047406870470B786D
:1009800003704B7843708B7883707047014B1970FC
:10099000704700BF6595FF1F10B5074B074A084C0D
:1009A00018780023195B4143091299520233B3F5B9
:1009B000007FF7D110BD00BF6C95FF1F5E9BFF1F2E
:1009C000A48B00000A4B1B78022B06D0032B09D006
:1009D000012B0BD1074B185C08E0074B185C000398
:1009E00080B27047054B33F8100070470002704723
:1009F0006595FF1FA48E0000A48D0000A48B00004D
:100A0000014B33F8100070475E9BFF1F014B988825
:100A1000704700BF6695FF1F014B197000F040BC86
:100A20009095FF1F034BC1F1FF011960024B01229A
:100A30001A707047609DFF1F5E9DFF1F164B1A685E
:100A4000002A30B501DA00221A601A688C6834F87E
:100A50001250854213461CD017D2498805E034F85D
:100A600013505A1C854200D10CE08A421346F6DB33
:100A7000094B1A604FF0FF330BE034F813105A1E85
:100A8000814202D1044A136003E0002A1346F4DADB
:100A9000EEE7184630BD00BF649DFF1F70B51C46D1
:100AA0005B7893420E46154601D8002070BD214662
:100AB000FFF7C4FF0028F8DB6278E36802FB003030
:100AC0008022435D42FA06F633420CBF002001202B
:100AD00070BD38B553788B420D46144601D80020BE
:100AE00038BD1146FFF7AAFF0028F8DB6278E368FB
:100AF00002FB0030405D38BD014B53F821007047C8
:100B0000A88F000070B5084616460D4601F0C6FADB
:100B10003228B4BF0446322422461C48294603F03A
:100B20007BFA1B4B1C701B4B1E601B4B1B681B78FE
:100B3000E4B25C43194B013C1C60194B1B78052B3C
:100B400022D85AB24FF06441914004D44FF0C053C0
:100B5000934012D470BD134A64421460124A518803
:100B6000124A1160124A022B116001D1146070BD4B
:100B7000052B09D10F4B1B6805E00D4A00231360BC
:100B80000A4A1360074A136070BD00BF749EFF1FBE
:100B9000B49EFF1F709EFF1F7495FF1FB09EFF1F26
:100BA0007195FF1FB89EFF1F6695FF1F6C9DFF1F6D
:100BB000A89EFF1F7C95FF1F014B1970704700BF57
:100BC0007195FF1F70B50A4B18780E4602F034FB82
:100BD000044630460D4602F02FFB0B4602462946DE
:100BE000204602F0B9FC02F0C7FD024B187070BD40
:100BF0009095FF1F6D95FF1F08B5FFF77DFF014B17
:100C0000186008BD7495FF1F0148FFF7B8BE00BF0C
:100C10006E95FF1F024B1960024B01221A7070473C
:100C20007895FF1FAC9EFF1F2DE9F04F002485B083
:100C3000DFF830A177E0424B19688C4272DB414B00
:100C40001E6896F8019001EB090084426ADA3E4D75
:100C500001272F703D4D36782D68002701E00137C0
:100C6000654615EB060CFAD4394EC9B28242C1EB87
:100C7000040BB8BFC1EB020132785FFA8BFBB8BF3F
:100C80005FFA81F962B100218022324803F05EF9F7
:100C900030488022A0F1800103F09EF800223270DB
:100CA00000220AEB8401CBEB090C104604E001EBB7
:100CB00082060132C6F880006245F8DB22E0264B4E
:100CC000D85D204B5FFA88F11A68CDF804C0FFF7B1
:100CD00000FF0006002DB8BF029BD6F88020DDF88B
:100CE00004C0B4BF9840E8400243C6F8802008F131
:100CF00001080436C845E2DB124A1268127801374F
:100D0000AD1802E00AEB84030393144A1278974269
:100D10000EDA134B5A8895420ADA6B42039E02930D
:100D2000D846E7E701340E4B9A88944283DB03E010
:100D30000CF1FF3C6444F5E705B0BDE8F08F00BF5F
:100D40007895FF1F7495FF1F689DFF1FA89EFF1FCA
:100D5000AC9EFF1FF09DFF1F749EFF1FB49EFF1FE0
:100D60006695FF1F709DFF1F10B5074C23784BB190
:100D700006488022A0F1800103F02EF8FFF754FF0F
:100D80000023237010BD00BFBC9EFF1FF09DFF1FFE
:100D9000274B1A68002A49D0264B27481978007833
:100DA0000131C9B28842197040D228E0196801396E
:100DB0001960224B1B6899421FDC214B1968214B9B
:100DC000196012E01968013919601C4B1B689942BF
:100DD00013DC022107E0196801311960184B1B6808
:100DE00099420ADB0121184B1970002A05DD013AEE
:100DF0000F4B01E0154A12681A60FFF715BF00217A
:100E00001970114B19780F4B0529F3D801A050F830
:100E100021F000BFAD0D0000C50D0000D70D000092
:100E2000F50D0000F50D0000AD0D0000704700BF8E
:100E3000709EFF1FBD9EFF1F6D95FF1FB89EFF1F79
:100E40006C9DFF1FA89EFF1F7195FF1F7C95FF1FC4
:100E500070B5174D2D78032D16D8DFE805F013096E
:100E6000020EC0F11F04C1F11F03E4B2DBB20BE0BC
:100E7000C0F11F03DBB20C4606E0C1F11F04E4B26F
:100E8000034601E00B46044620330A490125C4F11C
:100E90001F0451F8233005FA04F41C4005D0104615
:100EA0000549FFF76CFD284670BD204670BD00BFA8
:100EB0006695FF1F709DFF1F6E95FF1F4301C001C8
:100EC000C01A024B1B681818704700BF8C95FF1F93
:100ED000002910B52ADB002A28DB15480C4641887A
:100EE0008C4223DA81888A4220DA007888B102288D
:100EF00004D1C4F11F04C2F11F020AE0012804D189
:100F0000C2F11F0122460C4603E0C4F11F01144642
:100F10000A4608490968602000FB0212032000FB12
:100F200004201946BDE81040FFF729BD10BD00BFE1
:100F30006695FF1F8495FF1F2DE9F04216465A0162
:100F4000DB010C469F1A084D4FF0030907E02868A3
:100F50000699C01909FB0400FFF711FD0134B442E2
:100F6000F5DDBDE8F08200BF8495FF1F2DE9F0425A
:100F7000144612B21F46D50153014FF00309ED1A72
:100F8000074E09FB01F907E030680699401948440B
:100F9000FFF7F5FC01346035BC42F5DDBDE8F082B9
:100FA0008495FF1F70B58A421446049D02DA0A46F2
:100FB00021461446002C3ADB1D4A5688B14236DAE7
:100FC000002B34DB9288934231DAB44221EAE17299
:100FD00001DB741E24B21649097819B9D1B20495FF
:100FE000E2B20AE002290DD1C4F11F01C2F11F02D1
:100FF000C3F11F030495C9B2D2B2DBB2BDE87040A1
:10100000FFF79ABF012906D1C3F11F010495C9B2A8
:10101000D2B2E3B207E0C2F11F06C4F11F04D9B295
:101020000495E2B2F3B2BDE87040FFF79FBF70BD18
:101030006695FF1F2DE9F743BDF928400B9FA2429B
:1010400081460E46984602DD134622461C4646451A
:1010500002DD334646469846154607E02BB2009718
:10106000484631464246FFF79DFF0135A542F5DD72
:10107000BDE8FE8307B5064AB2F90230B2F9042092
:101080000191002100920A46FFF7D4FF0EBD00BF78
:101090006695FF1F08B5FFF72FFD014B186008BDCF
:1010A0008095FF1F2DE9F74F0F4601909046994616
:1010B0009DF830A0104D002418E05046F1B2E2B285
:1010C000FFF7ECFC30B1F119019809B25A464B46D2
:1010D000FFF7FEFE013604E004EB080B00260FFAD2
:1010E0008BFB2B681A789642E7DB01342B685B7820
:1010F0009C42F1DBBDE8FE8F8095FF1F2DE9F74F85
:10110000DFF87080009282460F469B4600260C9ABC
:1011100012F80690B9F1000F1BD128E04846E9B259
:10112000E2B2FFF7BBFC30B1E919504609B2019AAF
:101130005B46FFF7CDFE013504E0009AA3181BB211
:1011400000250193D8F800301A789542E6DB013487
:1011500000E00024D8F800305A789442EDDB1B7888
:10116000013607EB030C0A2E0FFA8CF7CFD1BDE83E
:10117000FE8F00BF8095FF1F0B4B1A7830B592B1E0
:101180000A480B4A0178147811700A4A04700A4D13
:101190004FF4406000FB04242C60084C00FB01224B
:1011A000226000221A7030BDBEB6FF1F8895FF1F57
:1011B000BFB6FF1FBE9EFF1F8C95FF1F8495FF1FAC
:1011C00010B50B4C0A4B20781A460028FAD10120A2
:1011D000187061B11378002BFCD1064B1868064BD0
:1011E00019684FF44062BDE8104002F0F5BD10BD33
:1011F000BEB6FF1F8495FF1F8C95FF1F014B18681B
:10120000704700BF8495FF1F10B5044601F008FE2B
:10121000204610BD70B51A4C2046FFF793FB2046C0
:10122000FFF7ABFB174C184A6021136801FB004124
:101230000D1D1E681D60154B1B681D681960144B41
:1012400004F5C07419684FF4407505FB00400C6844
:1012500008601049086840F08070086012795111E8
:10126000890001F1604101F5624102F01F02012095
:1012700000FA02F20A601A79074B1A7070BD00BFBB
:1012800014B7FF1F0082FF1F60B7FF1FD4B6FF1FF8
:10129000C4B6FF1F309004401F8000407047FFFF1E
:1012A000F0B5164B164E1B78164896FBF3F6164B08
:1012B0001F68164B40F2DF1C1D680023C3F10B02B0
:1012C00046FA02F294B204F115017A4389B292FB14
:1012D000F5F21532614592B206D8C4F5E5740134D1
:1012E000121992B24FF4F07100EB8304618020F880
:1012F000232001330C2BE1D1F0BD00BF9095FF1FDF
:1013000060E31600DCB6FF1F609DFF1FA48F000086
:101310002DE9F04F8DB007E26A4A147874B9FFF7EF
:101320002BFFFFF721FDFFF737FBFFF731FD664A83
:1013300013781BB1FFF7B4FF634B1C70614A13783D
:101340000133DBB20F2B00D801E05E4A002313709B
:101350005C4B5E4893F800B05D4B5E4D33F82B70EC
:1013600003EB8B025688FFF7E4FA4FF00C0EC4B281
:10137000594900230EFB04FE05EB830C0EEB030022
:1013800001EBC002BCF802C09780D680A2F802C070
:1013900035F8232001330C2B21F83020ECD14F4BB2
:1013A0001B7806934E4B1B78003318BF0123584619
:1013B0000393FFF783FD0BF11003DBB20490184693
:1013C0000793FFF77BFD474B05904FF440724FF0BA
:1013D000000902FB043ACDF80890069B002B00F0B0
:1013E000B181029B5946D8B20AAAFFF731FD002805
:1013F00040F0A181A6E1FFF7E5FA06469DF8290035
:10140000FFF7E0FA05469DF82A00FFF7DBFA0446ED
:1014100021E006469DF829509DF82A401BE0049BD8
:1014200013F80900FFF7ECFA049B03EB09040646E6
:101430006078FFF7E5FA0546A078FFF7E1FA044681
:1014400005E0049B13F809604B445D789C78069B8B
:10145000002B00F07C81029B0799D8B20BAAFFF702
:10146000F7FC002840F0788171E1FFF7ABFA804685
:101470009DF82D00FFF7A6FA07469DF82E00FFF70E
:10148000A1FA31E09DF82D709DF82E306BE1059B9F
:1014900013F80900FFF7B4FADDF814E00EEB0903C6
:1014A000804658780193FFF7ABFA019B074698787E
:1014B000FFF7A6FA18E0059B13F809004B445F7884
:1014C0009B7850E1C0B6FF1F5E9DFF1F14B7FF1F42
:1014D00020B7FF1FDCB6FF1F0082FF1F689DFF1FA4
:1014E0006595FF1F8083FF1F23114FEA261E099376
:1014F000CDF820E0DDF824E000232A116EF3041378
:10150000DDF820E000924FEA281C6EF30003DDF8BE
:1015100000E06CF3861339116EF3C713021161F307
:10152000820362F34513621162F30C33721162F3AA
:1015300008234FEA681262F38E336A1162F3CF33E5
:101540007A1162F38A23421162F34D33A21162F3DE
:101550001453B21162F310434FEAA81262F3965388
:10156000AA1162F3D753BA1162F39243821162F364
:101570005553E21162F31C73F21162F318634FEAE0
:10158000E81262F39E73EA1162F3DF73FA1162F3F9
:101590009A63C21162F35D730021221262F3041197
:1015A000321262F300014FEA282262F386112A12F6
:1015B00062F3C7113A1262F38201021262F345111B
:1015C000621262F30C31721262F308214FEA682250
:1015D00062F38E316A1262F3CF317A1262F38A219A
:1015E000421262F34D31A21262F31451B21262F34D
:1015F00010414FEAA82262F39651AA1262F3D75122
:10160000BA1262F39241821262F35551E21262F30E
:101610001C71F21262F318614FEAE82262F39E71C4
:10162000EA1262F3DF71FA1262F39A61C21262F394
:101630005D714FEA243E00226EF304124FEA263E0B
:101640006EF300024FEA283E6EF386124FEA253E03
:101650006EF3C7124FEA273E6EF382024FEA203E36
:101660006EF345124FEA643E6EF30C324FEA663E6B
:101670006EF308224FEA683E6EF38E324FEA653E03
:101680006EF3CF324FEA673E6EF38A224FEA603E36
:101690006EF34D324FEAA43E6EF314524FEAA63E6B
:1016A0006EF310424FEAA83E6EF396524FEAA53E03
:1016B0006EF3D7524FEAA73E6EF392424FEAA03E36
:1016C000E4136EF35552F61364F31C7266F318625A
:1016D0004FEAE838ED13CAF8003068F39E7243F021
:1016E0000233FF13CAF80C3065F3DF72029BCAF8AD
:1016F0000410C01367F39A6260F35D720133CAF895
:10170000082041F0023142F00232202BCAF81010BA
:10171000CAF8142002930AF1180A09F103097FF4A8
:101720005CAE1948FFF71AF91748FFF7FCF80028D4
:101730003FF4F2AD24E0039B9DF82800002B3FF41A
:1017400068AE58E6039B002B3FF47BAE67E6039B35
:10175000002B3FF4B0AE9AE6039B9DF82C00002BC3
:101760003FF490AE81E64FEA002836022D022402B3
:10177000B6B2ADB2A4B21FFA88F83F021802B3E6BF
:101780000DB0BDE8F08F00BF14B7FF1F2DE9F04F7B
:1017900004218DB08248FFF7C1F8002381491A4621
:1017A0000824C81812F001050CBF45804480960734
:1017B00004D5C818458845F010054580550704D55F
:1017C000C818458845F002054580100704D5C8189B
:1017D000458845F004054580C81801324088C0435B
:1017E00000F01E00C8520433102ADAD1FFF758FD6A
:1017F00008E26D4A147874B9FFF7BEFCFFF7B4FA3B
:10180000FFF7CAF8FFF7C4FA684A13781BB1FFF76D
:1018100047FD664B1C70644A13780133DBB20F2B13
:1018200000D801E0604A002313705F4B5C4893F8D6
:1018300000B05C4B5E4D33F82B7003EB8B02568887
:10184000FFF777F84FF00C0EC4B25A4900230EFB95
:1018500004FE05EB830C0EEB030001EBC002BCF8A9
:1018600002C09780D680A2F802C035F82320013349
:101870000C2B21F83020ECD14F4B1B7806934F4BAB
:101880001B78003318BF012358460393FFF716FB5C
:101890000BF11003DBB2049018460793FFF70EFB21
:1018A000474B05904FF440724FF0000902FB043A99
:1018B000CDF80890069B002B00F06A83029B5946E6
:1018C000D8B20AAAFFF7C4FA002840F066835FE3A3
:1018D000FFF778F806469DF82900FFF773F80546EC
:1018E0009DF82A00FFF76EF8044621E006469DF8B1
:1018F00029509DF82A401BE0049B13F80900FFF7CC
:101900007FF8049B03EB090406466078FFF778F83C
:101910000546A078FFF774F8044605E0049B13F829
:1019200009604B445D789C78069B002B00F0438354
:10193000029B0799D8B20BAAFFF78AFA002840F059
:10194000338338E3FFF73EF880469DF82D00FFF71C
:1019500039F807469DF82E00FFF734F832E09DF87D
:101960002D709DF82E302BE3059B13F80900FFF72F
:1019700047F8DDF814E00EEB090380465878019330
:10198000FFF73EF8019B07469878FFF739F819E012
:10199000059B13F809004B445F789B7810E300BF68
:1019A00014B7FF1F20B7FF1FC0B6FF1F5E9DFF1FAC
:1019B000DCB6FF1F0082FF1F689DFF1F6595FF1F9C
:1019C0008083FF1F23114FEA261E0993CDF820E0E4
:1019D000DDF824E000232A116EF30413DDF820E083
:1019E00000924FEA281C6EF30003DDF800E06CF370
:1019F000861339116EF3C713021161F3820362F388
:101A00004513621162F30C33721162F308234FEA3B
:101A1000681262F38E336A1162F3CF337A1162F384
:101A20008A23421162F34D33A21162F31453B211AF
:101A300062F310434FEAA81262F39653AA1162F3BD
:101A4000D753BA1162F39243821162F35553E211F4
:101A500062F31C73F21162F318634FEAE81262F347
:101A60009E73EA1162F3DF73FA1162F39A63C21193
:101A700062F35D730021221262F30411321262F3E9
:101A800000014FEA282262F386112A1262F3C7117D
:101A90003A1262F38201021262F34511621262F39A
:101AA0000C31721262F308214FEA682262F38E3120
:101AB0006A1262F3CF317A1262F38A21421262F320
:101AC0004D31A21262F31451B21262F310414FEA87
:101AD000A82262F39651AA1262F3D751BA1262F3A6
:101AE0009241821262F35551E21262F31C71F212BA
:101AF00062F318614FEAE82262F39E71EA1262F320
:101B0000DF71FA1262F39A61C21262F35D714FEAF9
:101B1000243E00226EF304124FEA263E6EF30002CA
:101B20004FEA283E6EF386124FEA253E6EF3C71247
:101B30004FEA273E6EF382024FEA203E6EF34512D3
:101B40004FEA643E6EF30C324FEA663E6EF30822B3
:101B50004FEA683E6EF38E324FEA653E6EF3CF3247
:101B60004FEA673E6EF38A224FEA603E6EF34D32D3
:101B70004FEAA43E6EF314524FEAA63E6EF31042B3
:101B80004FEAA83E6EF396524FEAA53E6EF3D75247
:101B90004FEAA73E6EF392424FEAA03EE4136EF383
:101BA0005552F61364F31C7266F318624FEAE83874
:101BB000ED13CAF8003068F39E7243F00233FF134E
:101BC000CAF80C3065F3DF72029BCAF80410C01328
:101BD00067F39A6260F35D720133CAF8082041F03E
:101BE000023142F00232202BCAF81010CAF8142039
:101BF00002930AF1180A09F103097FF45BAEC748A2
:101C0000FEF7ACFEC548FEF78EFE00283FF4F1ADAE
:101C1000FEF7C2FE0E20012100F0AEFB06200121DE
:101C200000F0AAFB0220012100F0A6FB15200121F3
:101C300000F0A2FB0520012100F09EFB07200121FE
:101C400000F09AFB1420012100F096FB09200121ED
:101C500000F092FB0A20012100F08EFB16200121EA
:101C600000F08AFB1720012100F086FBAC4BAD4A47
:101C7000AD4D00241C605C60AC4B1B7892FBF3F311
:101C8000AB4A1521136091601361AA4B1A6842F4A4
:101C900051721A60A84A4FF4517111601A6842F4E7
:101CA00080321A60A54B1A6842F4003242F4807206
:101CB0001A60A34B1A6842F002021A6053F8042C0F
:101CC00042F0020243F8042C9E4B1A6842F0800254
:101CD0001A602846214601F04BF89B48214601F046
:101CE00047F89A48214601F043F82146984801F008
:101CF0003FF82B68974A19681C710221B2F1804F96
:101D00001A605C71D97101D39A6822B904221A72DF
:101D10005C729C72DC7220225A726FF03F02DA729F
:101D20001A698D4A01201A61DA8AD8820021DD8B76
:101D3000854DD88308244FF0020C6FF003074FF055
:101D4000FF361F711C7383F806C083F807C01C722E
:101D50001C765E7159739973D97399721F755E758C
:101D600059769976D97695F80480B3F81C9008FADC
:101D700004F848F02008A3F81C806B4B1B7903F192
:101D8000804303F504334FF0B108197083F80080E5
:101D90002B68724DD3F8009005F10408C3F8008059
:101DA00083F804C04FF0040C83F80CC083F808C01B
:101DB000D3F810C0DFF89CC11C76C3F810C0DC8AD1
:101DC000D882DC8BD8839C8B59719983D8715973D5
:101DD0009973D973987159729972D9721F755E751A
:101DE00059769976D976594B1B68B5F1804F1C68A6
:101DF00019711D605971D87101D39A6822B90222F4
:101E00001A7259729972D9721869554818616FF02F
:101E10000F0018754FF0FF300121587520201876FB
:101E2000D88AD9820022D88B4948D9830227042531
:101E30001F715A711D735A739A73DA739971D9713C
:101E40001D725A729A72DA725A769A76DA76047932
:101E50009E8B3E4E240244F020049C83337903F190
:101E6000804303F50433B4241A701C7003681C68A3
:101E70003C4C1C600C241C715D726FF00B059D7254
:101E80006FF04005DD721D69374D5A711D611A737F
:101E90005A739A73DA739A71DA711A755A751A76D7
:101EA0005A769A76DA76DA8ADC82DA8BDC834FF03D
:101EB000400C9A8B83F808C09F8303792B4C2C4DE0
:101EC00003F1100244F822505A1102FA07F202F10B
:101ED000604202F5614203F01F0301FA03F313604D
:101EE000194A244F137903F1604303F56443FE2537
:101EF0001D70137903F1100544F825705C11A400DE
:101F000004F1604403F01F0304F5614401FA03F196
:101F1000054B21601979184B19702FE014B7FF1F7A
:101F20000090034060E316000CB7FF1F9095FF1F61
:101F30000890034030900440349004400CC00440AA
:101F4000408004400080004060B7FF1FD4B6FF1FF0
:101F5000C4B6FF1FD0B6FF1F88F00F400082FF1FDE
:101F6000189003408083FF1FC0F00F400090FF1FB8
:101F700015120000111300001B80004012791A7026
:101F800032791A7002791A70154B08221A6024E00F
:101F9000039B002B3FF4C2ACAEE4039B9DF82800EA
:101FA000002B3FF4A3AC93E4039B9DF82C00002B83
:101FB0003FF4D5ACC6E4039B002B3FF4E9ACD3E47B
:101FC0004FEA002836022D022402B6B2ADB2A4B206
:101FD0001FFA88F83F021802F4E40DB0BDE8F08F54
:101FE0000090034038B50C4D0C4C0D482946224654
:101FF00001F0B6FE294622460A4801F0B1FE294604
:102000002246094801F0ACFE084829462246BDE8B0
:10201000384001F0A5BE00BF091200006095FF1F07
:102020000CB7FF1F60B7FF1FD4B6FF1FC4B6FF1F5A
:10203000024B1A6801321A60704700BFF0B7FF1FE9
:1020400038B50B4C25462368580301D500F0C2FA79
:102050002B68590501D500F00DF82B681A0501D53C
:1020600000F008F82368DB04EDD500F003F8EAE798
:102070003480044008B5FFF7E3FFFFFF014B102257
:102080001A807047002005407047FFFF024A13681E
:1020900018181060184670479495FF1F002300E041
:1020A0000133C25C002AFBD11846704710B50023EB
:1020B000B0FBF2F402FB1400092801D8303000E034
:1020C0003730C85420460CB10133F1E7CA185470B8
:1020D000224605E0885CCC5C8C54C8540132013B3C
:1020E0009A42F7DB084610BD084B4FF400021A6015
:1020F0004FF080721A604FF000721A604FF08062E9
:102100001A604FF000621A60704700BF08E100E0FB
:10211000114B10B51C68E0041C6004D50F4BDA6845
:102120000AB1DB689847A10404D50C4B1A690AB1BF
:102130001B699847A20604D5084B1A6E0AB11B6E9C
:102140009847E30606D5054BD3F8842012B1D3F89F
:102150008430984710BD00BFA090044068B7FF1FAF
:102160001F4B10B51C68E0031C6004D51D4B1A689A
:102170000AB11B689847A10304D51A4B5A680AB1E3
:102180005B689847E20704D5164B1A6C0AB11B6CC2
:102190009847A30704D5134B5A6C0AB15B6C984758
:1021A000200704D50F4B9A6C0AB19B6C98476107C6
:1021B00004D50C4BDA6C0AB1DB6C9847220304D5CA
:1021C000084B5A6E0AB15B6E9847630306D5054B00
:1021D000D3F8802012B1D3F88030984710BD00BFEB
:1021E000A0A0044068B7FF1F2C4B10B51C68200747
:1021F0001C6004D52A4B5A6A0AB15B6A9847E1060B
:1022000004D5274B9A6A0AB19B6A9847620604D59F
:10221000234BDA6A0AB1DB6A9847230604D5204BC0
:102220001A6B0AB11B6B9847A00604D51C4B5A6B5E
:102230000AB15B6B9847E10704D5194BDA6B0AB119
:10224000DB6B9847A20704D5154B9A6D0AB19B6DBD
:102250009847630704D5124BDA6D0AB1DB6D9847D6
:10226000A00504D50E4BDA6E0AB1DB6E9847E10586
:1022700004D50B4B1A6F0AB11B6F9847620504D542
:10228000074B5A6F0AB15B6F9847230504D5044B7F
:102290009A6F0AB19B6F984710BD00BFA0B0044071
:1022A00068B7FF1F1E4B10B51C68E0071C6004D503
:1022B0001C4B9A680AB19B689847210604D5194BB4
:1022C0005A690AB15B699847E20604D5154B9A69C9
:1022D0000AB19B699847630704D5124BDA690AB1C2
:1022E000DB699847200704D50E4B1A6A0AB11B6AAE
:1022F0009847A10704D50B4B9A6B0AB19B6B984783
:10230000A20604D5074B1A6D0AB11B6D98476306E8
:1023100004D5044B5A6D0AB15B6D984710BD00BFE0
:10232000A0C0044068B7FF1F094B10B51C68A20786
:102330001C6004D5074B9A6E0AB19B6E9847E30761
:1023400004D5044BDA6F0AB1DB6F984710BD00BFAC
:10235000A0D0044068B7FF1F044B054900221A6053
:102360000A60044A106010221A60704714D00340BB
:1023700004D0034000D00340212816D80B4A02EBBA
:10238000C00301295B6852F8302004D182F8801222
:102390004FF4A27208E0002082F8800211B94FF4D5
:1023A000807201E040F203121A607047C08F000093
:1023B00072B60B4B0B491A680B4B1B68096862B667
:1023C000490102D5322A88BF0133C2F5BB32FF3240
:1023D0006021B2FBF1F24FF47A7000FB03207047EA
:1023E00018E000E004ED00E0F0B7FF1F70B5044610
:1023F000FFF7DEFF05466CB140F2E736FFF7D8FF86
:10240000401BB04203D9013C04D005F57A7500F0B9
:10241000ADFCF3E770BDFFFF10B5FFF765FE164B8F
:10242000164A174C00204BF6FF711860596028239C
:1024300013609360136193611362936213639363F8
:10244000092222600F4C20606160A360236144F880
:10245000042C0D4C20600D4801600D490B608B6011
:102460000C4B1A6000F0FEFC0420FFF7BFFFBDE834
:10247000104000F0CBBB00BF048003400C80034041
:10248000008003400490034004800B4008800B4010
:102490000C800B4000800B40F0B50C4B0C4C1A78B4
:1024A00042F0020504EBC50682F0010270600948A3
:1024B0001A700678002E0CBF8827C82747EA01410A
:1024C00086F0010644F835100670F0BD5CB8FF1FB9
:1024D0000080FF1FD4B8FF1F70B572B6184E194C9C
:1024E00001239A1912F8012C02F00802D2B2E2B1CB
:1024F0009900144A54F831502DB902EB43130830B7
:102500005860114B09E041F0010154F8315065B9B0
:1025100002EBC103083058600C4B42F831300C4BD1
:102520001A78013A1A7062B670BD0133052BD8D102
:1025300062B6074B00221A70BDE8704000F0D2BBB3
:10254000D09000000080FF1F88004000C8004000BD
:10255000CAB8FF1F431E032B30B532D84001194AB9
:1025600040F01000101872B6174CE25C032A09D82C
:10257000DFE802F0160218050830022213E00830E6
:10258000042210E01148124A50F8234014B940F8D0
:10259000231002E052F82300416042F823100FE0BC
:1025A000032200E00522E25410F0080F01F10803B5
:1025B0000A8843600CBF8823C82343EA02430360B0
:1025C00062B630BD0080FF1F08B8FF1FA0B8FF1F14
:1025D000B0B8FF1F2DE9F74FA54EA64C357805F092
:1025E0000403DBB2ABB1A44B1B7883B1A34A1378CD
:1025F00023B1013BDBB2137003B900BEA04A1378CC
:102600002BB1013BDBB213700BB900F08DFB04233F
:10261000337005F00802D2B2002A00F08082994B94
:102620001B781D094FEA930940F0FE8104EBC903B2
:10263000586854F83930C3F38303013B0C2B00F284
:10264000F081DFE813F0A901A901EE01EE01EE012E
:10265000EE01EE01EE01C501EE01EE01EE010D000D
:102660004368894902684B60884B894844F839308F
:10267000884D0A60002303600120287092B240F266
:102680008165AA422361A36117D8B2F5D06F80F0AB
:102690002C81B2F5817F00F0DC8006D8802A00F022
:1026A000C280822A40F03D81C1E040F202339A426A
:1026B00000F00C81B2F5A06F16E042F22105AA42AB
:1026C00000F0678108D8B2F5086F00F0A680B2F577
:1026D000106F40F026810AE042F22120824200F091
:1026E0001C8142F221339A4240F01B811DE18A781D
:1026F000614B604D1A702B6A180603D5686A08385A
:1027000000F0F0FA644A08359542F4D1DFF8B09150
:10271000DFF8B0B10025A846CA4655F8090005E023
:102720004368009300F0DEFA009B18460028F7D1BA
:102730005A4B4AF8050045F80B00E85807E0426894
:102740000093019200F0CEFA019A009B10460028F7
:10275000F5D15851524BE850524B23F81800524BC8
:1027600018F80320023A032A08D8DFE802F002042E
:102770000204002200E0012203F8082008F1010809
:102780000435B8F1040FC8D1484BDFF83C91002262
:102790001A7001259846464B05EB0902EB1812F812
:1027A000012C9B001A7002F00802D2B23AB300F07A
:1027B0007BFAAB0038B104EB4512083050603D4A5B
:1027C00044F8332006E044F8330098F80030013331
:1027D00088F8003000F068FAAB0043F0010338B12C
:1027E00004EBC30208305060284A44F8332006E066
:1027F00044F8330098F80030013388F80030AA001C
:1028000042F00201013542F003020023052D44F895
:10281000313044F83230BED188E0174B264D1B785A
:102820002B70034685E0244D2B706B7080E08A8806
:10283000042A00D975E0204D2B706B701F4B92005D
:10284000D3181B7803F00203DBB2002B70D0287082
:102850006EE08A8802F07F03042B62DC4B8803B1B0
:102860005FE09100154A8A18117821F0020156E0C4
:10287000802007400080FF1FD3B8FF1F5DB8FF1FF7
:10288000D5B8FF1F90200740C0B8FF1FC800400008
:10289000F4B7FF1FD4B8FF1F8080FF1FA0B8FF1F31
:1028A000B0B8FF1F18B9FF1F08B8FF1FCAB8FF1F35
:1028B00030C8011088004000CBB8FF1FC02007407F
:1028C0004CB8FF1FF8B7FF1FD09000008A8802F0B5
:1028D0007F03042B25DC4B8803B122E09100A14A41
:1028E0008A18117841F0020119E04A889E4B8988C4
:1028F00053F8085CA3F10C009DB133F80CCC94455F
:1029000009D133F80ACC8C4505D1120A032A0CBF31
:102910002B7803890DE00C33EAE78978934A11702C
:1029200004E0904B0F221A7033E000231D4600E0B4
:1029300002238F4AB2F806904B4538BF9946B9F149
:10294000400F34BFC8464FF0400828464146FFF7C5
:10295000A3FDB9EB0809454403D1B8F1400F07D0F6
:1029600017E0B9F1400F34BFC8464FF0400800E00F
:10297000C84628464146FFF78FFDB9EB0809454494
:1029800002D1B8F1400F04D17A4B7B4A1D60A2F806
:1029900000900122794B43E0754B1A8842F22103E3
:1029A0009A4211D1764A0023C15C99540133072B16
:1029B000FAD1734B1B68862B02D1724B0F221A700F
:1029C00000200146FFF768FD6F4B44F8393028E0DE
:1029D000684BD3F80080B8F1000F18D0DFF8989159
:1029E000B9F800A0BAF1400F34BF55464025404623
:1029F0002946FFF751FDC5EB0A039BB2A9F8003049
:102A00000BB9402D01D108EB05035A4A1360584B0E
:102A10001A88B2F5A06F04D100225A709A785B4BE5
:102A20001A700122554B6DE004EBC90803F008034E
:102A3000D8F80420013DD9B2A2F10800EDB2002976
:102A400037D000F04FF95248524B50F82510F1B1F1
:102A50004A6840F8252001F10802C8F804205A5DB0
:102A6000032A0BD8DFE802F002040608032204E080
:102A7000022202E0052200E004225A5518F0080F55
:102A80000A880CBF8823C82343EA024342E05A5D08
:102A9000032A07D8DFE802F040400204002206E0E3
:102AA000012204E018F0080F0CBF022203225A553D
:102AB00032E054F839301B0C22F8083C23B322F8DA
:102AC000061C42F8041C344A344952F8257017B9E0
:102AD00042F8250002E051F825205060304A41F8C4
:102AE000250032F815105B1822F8153000F0DCF8DC
:102AF00018B10830C8F8040006E02A4B44F8390041
:102B00001A7801321A7007E01F4B274A18F0080F95
:102B100008BF134644F83930082333705EE5E907EF
:102B200052D516492048214C02230B70204B1A70B5
:102B3000204B1860986020481A61D8609A615C60E8
:102B4000084B0D2018701D48FF23037000F8083C47
:102B500002741B4A13701B4B9F221A7001230B70C7
:102B60004BE000BFC0200740E0900000DCB8FF1F32
:102B7000C0B8FF1FF4B7FF1FC8B8FF1F942007405D
:102B800020B9FF1F5DB8FF1FC80040009820074014
:102B9000A0B8FF1F08B8FF1F4CB8FF1FF8B7FF1FF2
:102BA00018B9FF1FCAB8FF1F880040000CB8FF1FEC
:102BB0005CB8FF1F0080FF1F60B8FF1F8820074020
:102BC0008C200740842007402B0605D50C4B0D2296
:102BD0001A70802203F8402C05F00203DBB22BB1FF
:102BE000084B1A781A70022203F8082C05F0100519
:102BF000EDB215B1044B10221A70BDE8FE8F00BF74
:102C0000C0200740882007408020074008B500F01A
:102C100089F900231E491A465A50C8180833882BD0
:102C20004260F9D11B4B1A6842F480221A601A4B99
:102C300080221A701978184A0906FBD4144B1749D8
:102C4000C3F307200870C3F307401B0E08750B760B
:102C5000FF2301F81C3C01F8143C01F88C3C13786C
:102C600043F0400313700021012302F8783C02F87E
:102C70000C1C02F8883C0A4B70226FF4507C1A70CE
:102C800063444FF400721A60064B10221A7008BD9C
:102C90000080FF1F348004400C2107409C20074027
:102CA00049E400E00821074072B60C4A1168B1FA05
:102CB00081F30B2B02D962B6002070474FF0004021
:102CC00020FA03F021EA0001116062B604494822AB
:102CD0005343C8180022CA50426070479895FF1F9E
:102CE0000092FF1F0C4B4822C31AB3FBF2F30B2BCD
:102CF00011D80A4A127822B1094A12780AB1FFF7AC
:102D0000EBBB72B6074A4FF0004121FA03F311689A
:102D10001943116062B670470092FF1FCAB8FF1FC7
:102D2000D3B8FF1F9895FF1F38B50D4B1D78ADB96F
:102D30000C4C216831B14B8804200B80FFF70AFC52
:102D4000256038BDFFF7B0FF014620B10420BDE883
:102D50003840FFF7FFBB044B01221A7038BD00BF9B
:102D6000D6B8FF1FD8B8FF1FD5B8FF1F7047FFFFA9
:102D700030B572B609B9026822B9264A0023118813
:102D8000144611E003790F2BF7D82249098841FA3C
:102D900003F1C907F1D503F1007303F59063B2EBBA
:102DA000431FEAD162B630BD41FA03F212F00102CC
:102DB00027D1012505FA03F52943218062B616497A
:102DC00003710C6844F002040C6051F8044C44F0A8
:102DD000020441F8044C114982240C608B768B77F5
:102DE0000B76CB7703F1007303F590635B0103600F
:102DF0001A605A609A60DA601A615A619A61DA61FF
:102E000030BD0133102BCFD162B6002202600371B6
:102E100030BD00BFDEB8FF1F40800440008000408E
:102E200003790F2B10D8094A137072B6084B027938
:102E3000012101FA02F2198821EA02021A8062B61F
:102E40001023037100230360704700BF1A80004005
:102E5000DEB8FF1F08B5FDF73FFBFDF759FBFFF795
:102E600085FFFAE7224B60221A70E1225A70214B4B
:102E7000214A1978214B082901D1012102E00A29B0
:102E800007D13921116013221A601D4B19605A6055
:102E90000BE00C291A4901D1352000E03D201060DB
:102EA00012221A60174B08601A60174B17491B78DB
:102EB000174A03B101230B601360164B164A1978A9
:102EC000164B012901D880210CE0042901D8842166
:102ED00008E0082901D8852104E0102901D88621BD
:102EE00000E08721116019600D4B01221A707047B4
:102EF000004007409C95FF1F08B003400CB0034002
:102F000008B00B400CB00B40E1B8FF1F20B00340ED
:102F100020B00B409D95FF1F24B0034024B00B4010
:102F2000E0B8FF1F1FB572B6154B70221A70154A14
:102F3000412111700F2102F8011C80221A701A78A9
:102F40001206FCD5104B186862B6104B984201D897
:102F50000A23584301A90A22FFF7A8F80C480023C6
:102F600001AA9A5C2AB100EB430101330A2B4A8083
:102F7000F6D10133064A5B00137005B000BD00BFF7
:102F80000000024007000240080002407F969800BF
:102F90002696FF1F81F0004102E000BF83F000434E
:102FA00030B54FEA41044FEA430594EA050F08BFE4
:102FB00090EA020F1FBF54EA000C55EA020C7FEAA8
:102FC000645C7FEA655C00F0E2804FEA5454D4EB25
:102FD0005555B8BF6D420CDD2C4480EA020281EAEF
:102FE000030382EA000083EA010180EA020281EA27
:102FF0000303362D88BF30BD11F0004F4FEA013179
:103000004FF4801C4CEA113102D0404261EB410187
:1030100013F0004F4FEA03334CEA133302D052420D
:1030200063EB430394EA050F00F0A780A4F10104C9
:10303000D5F1200E0DDB02FA0EFC22FA05F2801803
:1030400041F1000103FA0EF2801843FA05F35941E9
:103050000EE0A5F120050EF1200E012A03FA0EFC68
:1030600028BF4CF0020C43FA05F3C01851EBE37192
:1030700001F0004507D54FF0000EDCF1000C7EEBAF
:1030800000006EEB0101B1F5801F1BD3B1F5001FED
:103090000CD349085FEA30004FEA3C0C04F101040C
:1030A0004FEA445212F5800F80F09A80BCF1004F35
:1030B00008BF5FEA500C50F1000041EB045141EAB7
:1030C000050130BD5FEA4C0C404141EB010111F4B8
:1030D000801FA4F10104E9D191F0000F04BF014663
:1030E0000020B1FA81F308BF2033A3F10B03B3F141
:1030F00020020CDA0C3208DD02F1140CC2F10C02D1
:1031000001FA0CF021FA02F10CE002F11402D8BF2E
:10311000C2F1200C01FA02F120FA0CFCDCBF41EAFA
:103120000C019040E41AA2BF01EB0451294330BDC9
:103130006FEA04041F3C1CDA0C340EDC04F11404A6
:10314000C4F1200220FA04F001FA02F340EA03007D
:1031500021FA04F345EA030130BDC4F10C04C4F1C3
:10316000200220FA02F001FA04F340EA03002946A3
:1031700030BD21FA04F0294630BD94F0000F83F4ED
:10318000801306BF81F480110134013D4EE77FEAD0
:10319000645C18BF7FEA655C29D094EA050F08BF1C
:1031A00090EA020F05D054EA000C04BF19461046FD
:1031B00030BD91EA030F1EBF0021002030BD5FEA41
:1031C000545C05D14000494128BF41F0004130BD69
:1031D00014F580043CBF01F5801130BD01F00045BD
:1031E00045F0FE4141F470014FF0000030BD7FEA30
:1031F000645C1ABF194610467FEA655C1CBF0B462B
:10320000024650EA013406BF52EA033591EA030F41
:1032100041F4002130BD00BF90F0000F04BF002139
:10322000704730B54FF4806404F132044FF000056C
:103230004FF0000150E700BF90F0000F04BF0021E5
:10324000704730B54FF4806404F1320410F000454B
:1032500048BF40424FF000013EE700BF42004FEA46
:10326000E2014FEA31014FEA02701FBF12F07F43C3
:1032700093F07F4F81F06051704792F0000F14BFC0
:1032800093F07F4F704730B54FF4607401F0004504
:1032900021F0004120E700BF50EA010208BF70475B
:1032A00030B54FF000050AE050EA010208BF704750
:1032B00030B511F0004502D5404261EB41014FF4B9
:1032C000806404F132045FEA915C3FF4DCAE4FF0BD
:1032D00003025FEADC0C18BF03325FEADC0C18BFA4
:1032E000033202EBDC02C2F1200300FA03FC20FAF5
:1032F00002F001FA03FE40EA0E0021FA02F1144442
:10330000C1E600BF70B54FF0FF0C4CF4E06C1CEA56
:1033100011541DBF1CEA135594EA0C0F95EA0C0FCB
:1033200000F0DEF82C4481EA030621EA4C5123EA3E
:103330004C5350EA013518BF52EA033541F480116D
:1033400043F4801338D0A0FB02CE4FF00005E1FB20
:1033500002E506F00042E0FB03E54FF00006E1FB6A
:1033600003569CF0000F18BF4EF0010EA4F1FF04AD
:10337000B6F5007F64F5407404D25FEA4E0E6D41ED
:1033800046EB060642EAC62141EA55514FEAC520FE
:1033900040EA5E504FEACE2EB4F1FD0C88BFBCF57A
:1033A000E06F1ED8BEF1004F08BF5FEA500E50F12B
:1033B000000041EB045170BD06F0004646EA0101F1
:1033C00040EA020081EA0301B4EB5C04C2BFD4EB23
:1033D0000C0541EA045170BD41F480114FF0000E1C
:1033E000013C00F3AB8014F1360FDEBF002001F08A
:1033F000004170BDC4F10004203C35DA0C341BDC04
:1034000004F11404C4F1200500FA05F320FA04F0D5
:1034100001FA05F240EA020001F0004221F0004109
:1034200010EBD37021FA04F642EB06015EEA430E7C
:1034300008BF20EAD37070BDC4F10C04C4F12005AC
:1034400000FA04F320FA05F001FA04F240EA02005F
:1034500001F0004110EBD37041F100015EEA430E30
:1034600008BF20EAD37070BDC4F1200500FA05F250
:103470004EEA020E20FA04F301FA05F243EA0203CF
:1034800021FA04F001F0004121FA04F220EA0200DE
:1034900000EBD3705EEA430E08BF20EAD37070BD24
:1034A00094F0000F0FD101F00046400041EB010104
:1034B00011F4801F08BF013CF7D041EA060195F0E6
:1034C000000F18BF704703F00046520043EB0303A0
:1034D00013F4801F08BF013DF7D043EA060370478D
:1034E00094EA0C0F0CEA135518BF95EA0C0F0CD098
:1034F00050EA410618BF52EA4306D1D181EA0301DE
:1035000001F000414FF0000070BD50EA410606BFD7
:103510001046194652EA430619D094EA0C0F02D11C
:1035200050EA013613D195EA0C0F05D152EA033661
:103530001CBF104619460AD181EA030101F000417F
:1035400041F0FE4141F470014FF0000070BD41F0C8
:10355000FE4141F4780170BD70B54FF0FF0C4CF4A2
:10356000E06C1CEA11541DBF1CEA135594EA0C0FC1
:1035700095EA0C0F00F0A7F8A4EB050481EA030E0E
:1035800052EA03354FEA013100F088804FEA0333F5
:103590004FF0805545EA131343EA12634FEA0222C3
:1035A00045EA111545EA10654FEA00260EF0004184
:1035B0009D4208BF964244F1FD0404F5407402D2D6
:1035C0005B084FEA3202B61A65EB03055B084FEA67
:1035D00032024FF480104FF4002CB6EB020E75EB64
:1035E000030E22BFB61A754640EA0C005B084FEA8C
:1035F0003202B6EB020E75EB030E22BFB61A754609
:1036000040EA5C005B084FEA3202B6EB020E75EB53
:10361000030E22BFB61A754640EA9C005B084FEACB
:103620003202B6EB020E75EB030E22BFB61A7546D8
:1036300040EADC0055EA060E18D04FEA051545EAC7
:1036400016754FEA06164FEAC30343EA52734FEA70
:10365000C2025FEA1C1CC0D111F4801F0BD141EAE9
:1036600000014FF000004FF0004CB6E711F4801F4E
:1036700004BF01430020B4F1FD0C88BFBCF5E06F2E
:103680003FF6AFAEB5EB030C04BFB6EB020C5FEA3E
:10369000500C50F1000041EB045170BD0EF0004E93
:1036A0004EEA113114EB5C04C2BFD4EB0C0541EAC5
:1036B000045170BD41F480114FF0000E013C90E6C2
:1036C00045EA060E8DE60CEA135594EA0C0F08BF86
:1036D00095EA0C0F3FF43BAF94EA0C0F0AD150EA85
:1036E00001347FF434AF95EA0C0F7FF425AF104618
:1036F00019462CE795EA0C0F06D152EA03353FF440
:10370000FDAE1046194622E750EA410618BF52EABC
:1037100043067FF4C5AE50EA41047FF40DAF52EA90
:1037200043057FF4EBAE12E74FEA410212F50012B7
:1037300015D211D56FF47873B3EB625212D94FEAF8
:10374000C12343F0004343EA505311F0004F23FAE2
:1037500002F018BF404270474FF00000704750EA37
:10376000013005D111F0004008BF6FF000407047F4
:103770004FF00000704700BF4A0011D212F500124E
:1037800011D20DD56FF47873B3EB62520ED44FEAB9
:10379000C12343F0004343EA505323FA02F0704739
:1037A0004FF00000704750EA013002D14FF0FF3077
:1037B00070474FF00000704780F0004002E000BF0B
:1037C00081F0004142001FBF5FEA410392EA030F0C
:1037D0007FEA226C7FEA236C6AD04FEA1262D2EB56
:1037E0001363C1BFD218414048404140B8BF5B425B
:1037F000192B88BF704710F0004F40F4000020F0F4
:103800007F4018BF404211F0004F41F4000121F009
:103810007F4118BF494292EA030F3FD0A2F1010253
:1038200041FA03FC10EB0C00C3F1200301FA03F191
:1038300000F0004302D5494260EB4000B0F5000FB4
:1038400013D3B0F1807F06D340084FEA310102F173
:103850000102FE2A51D2B1F1004F40EBC25008BF25
:1038600020F0010040EA03007047490040EB0000EF
:1038700010F4000FA2F10102EDD1B0FA80FCACF11E
:10388000080CB2EB0C0200FA0CF0AABF00EBC2501D
:1038900052421843BCBFD0401843704792F0000F0B
:1038A00081F4000106BF80F400000132013BB5E75E
:1038B0004FEA41037FEA226C18BF7FEA236C21D0D4
:1038C00092EA030F04D092F0000F08BF0846704739
:1038D00090EA010F1CBF0020704712F07F4F04D107
:1038E000400028BF40F00040704712F100723CBF1A
:1038F00000F50000704700F0004343F0FE4040F444
:10390000000070477FEA226216BF08467FEA236301
:103910000146420206BF5FEA412390EA010F40F4EC
:10392000800070474FF0000304E000BF10F0004338
:1039300048BF40425FEA000C08BF704743F096431F
:1039400001464FF000001CE050EA010208BF70473A
:103950004FF000030AE000BF50EA010208BF7047C1
:1039600011F0004302D5404261EB41015FEA010CD6
:1039700002BF84460146002043F0B64308BFA3F1CE
:103980008053A3F50003BCFA8CF2083AA3EBC253B0
:1039900010DB01FA02FC634400FA02FCC2F12002CF
:1039A000BCF1004F20FA02F243EB020008BF20F006
:1039B0000100704702F1200201FA02FCC2F120026C
:1039C00050EA4C0021FA02F243EB020008BF20EA61
:1039D000DC7070474FF0FF0C1CEAD0521EBF1CEA8F
:1039E000D15392EA0C0F93EA0C0F6FD01A4480EA7D
:1039F000010C400218BF5FEA41211ED04FF0006366
:103A000043EA501043EA5111A0FB01310CF0004091
:103A1000B1F5000F3EBF490041EAD3715B0040EAB7
:103A2000010062F17F02FD2A1DD8B3F1004F40EB87
:103A3000C25008BF20F00100704790F0000F0CF05A
:103A4000004C08BF49024CEA502040EA51207F3A1E
:103A5000C2BFD2F1FF0340EAC250704740F40000F9
:103A60004FF00003013A5DDC12F1190FDCBF00F0EA
:103A700000407047C2F10002410021FA02F1C2F198
:103A8000200200FA02FC5FEA310040F1000053EA34
:103A90004C0308BF20EADC70704792F0000F00F082
:103AA000004C02BF400010F4000F013AF9D040EA88
:103AB0000C0093F0000F01F0004C02BF490011F41C
:103AC000000F013BF9D041EA0C018FE70CEAD1531A
:103AD00092EA0C0F18BF93EA0C0F0AD030F0004C9A
:103AE00018BF31F0004CD8D180EA010000F000404E
:103AF000704790F0000F17BF90F0004F084691F00C
:103B0000000F91F0004F14D092EA0C0F01D1420245
:103B10000FD193EA0C0F03D14B0218BF084608D10E
:103B200080EA010000F0004040F0FE4040F4000058
:103B3000704740F0FE4040F4400070474FF0FF0CEB
:103B40001CEAD0521EBF1CEAD15392EA0C0F93EA32
:103B50000C0F69D0A2EB030280EA010C49024FEA84
:103B6000402037D04FF0805343EA111143EA10133D
:103B70000CF000408B4238BF5B0042F17D024FF4F5
:103B8000000C8B4224BF5B1A40EA0C00B3EB510FD0
:103B900024BFA3EB510340EA5C00B3EB910F24BFB9
:103BA000A3EB910340EA9C00B3EBD10F24BFA3EB3E
:103BB000D10340EADC001B0118BF5FEA1C1CE0D106
:103BC000FD2A3FF650AF8B4240EBC25008BF20F0B9
:103BD000010070470CF0004C4CEA50207F32C2BF0D
:103BE000D2F1FF0340EAC250704740F400004FF0AA
:103BF0000003013A37E792F0000F00F0004C02BFDB
:103C0000400010F4000F013AF9D040EA0C0093F0A4
:103C1000000F01F0004C02BF490011F4000F013BFE
:103C2000F9D041EA0C0195E70CEAD15392EA0C0F66
:103C300008D142027FF47DAF93EA0C0F7FF470AF9E
:103C4000084676E793EA0C0F04D14B023FF44CAFE1
:103C500008466EE730F0004C18BF31F0004CCAD176
:103C600030F000427FF45CAF31F000437FF43CAFB2
:103C70005FE700BF4FF0FF3C06E000BF4FF0010CD4
:103C800002E000BF4FF0010C4DF804CD4FEA4002B6
:103C90004FEA41037FEA226C18BF7FEA236C11D000
:103CA00001B052EA530C18BF90EA010F58BFB2EBB3
:103CB000030088BFC81738BF6FEAE17018BF40F033
:103CC000010070477FEA226C02D15FEA402C05D1E7
:103CD0007FEA236CE4D15FEA412CE1D05DF8040B6C
:103CE000704700BF844608466146FFE70FB5FFF7FF
:103CF000C9FF002848BF10F1000F0FBD4DF808EDB7
:103D0000FFF7F4FF0CBF012000205DF808FB00BFA7
:103D10004DF808EDFFF7EAFF34BF012000205DF801
:103D200008FB00BF4DF808EDFFF7E0FF94BF01204E
:103D300000205DF808FB00BF4DF808EDFFF7D2FF4B
:103D400094BF012000205DF808FB00BF4DF808ED8E
:103D5000FFF7C8FF34BF012000205DF808FB00BF5B
:103D600003460846194600F001B800BF30B40546C6
:103D70000C46134602202946224630BC00F07EB98C
:103D800070B549F23C1649F23C15C0F20006C0F28B
:103D90000005761BB61007D0043D002455F8043FFB
:103DA00001349847A642F9D149F2481649F23C1528
:103DB000C0F20006C0F20005761B05F0B9F9B61096
:103DC00008D0043D002455F8043F01349847A6422A
:103DD000F9D170BD70BD00BF032A2DE9F00F09D8DD
:103DE0002AB10023CC5CC45401339342FAD1BDE81C
:103DF000F00F7047830702440ED0441C4D1C15F889
:103E0000017C04F00306234601342946013504F8F9
:103E1000027C002EF3D100E0034611F003046DD0C4
:103E2000D71A0D1B032F2E6819DDC4F1040C4FEABD
:103E3000C4081C1D4FEACC0C55F8047FC4EB0209E2
:103E4000234604310434B9F1030F26FA08FA07FABD
:103E50000CFB3E464BEA0A0744F8087CECDC9A422D
:103E6000C5D901330131013211F8014C013301315F
:103E7000934203F8024CF7D1B9E70C684033403164
:103E800043F8404C51F83C4C43F83C4C51F8384C0A
:103E900043F8384C51F8344C43F8344C51F8304C1A
:103EA00043F8304C51F82C4C43F82C4C51F8284C2A
:103EB00043F8284C51F8244C43F8244C51F8204C3A
:103EC00043F8204C51F81C4C43F81C4C51F8184C4A
:103ED00043F8184C51F8144C43F8144C51F8104C5A
:103EE00043F8104C51F80C4C43F80C4C51F8084C6A
:103EF00043F8084C51F8044C43F8044CD41A3F2CB6
:103F0000BBDC11E00C681033103143F8104C51F851
:103F10000C4C43F80C4C51F8084C43F8084C51F841
:103F2000044C43F8044CD41A0F2CEBDC032C96DD24
:103F30001C1D0D1D55F8047C161B23462946043410
:103F40000435032E44F8087CF4DC88E7032AC9B260
:103F500070B408D82AB10346121803F8011B934223
:103F6000FBD170BC70478307024409D0441C04F0A5
:103F70000305234604F8011C0134002DF7D100E0AD
:103F80000346D51A01EB01243F2D04EB04442CDD3C
:103F90001C604033D51A43F83C4C3F2D43F8384C55
:103FA00043F8344C43F8304C43F82C4C43F8284C3D
:103FB00043F8244C43F8204C43F81C4C43F8184C6D
:103FC00043F8144C43F8104C43F80C4C43F8084C9D
:103FD00043F8044CDCDC08E01C601033D51A43F8CD
:103FE0000C4C43F8084C43F8044C0F2DF4DC032D23
:103FF00008DD1D1D561B45F8044C032E2B4605F10C
:104000000405F7DC9A42ACD90133013203F8011CF4
:1040100001339342FAD1A4E741EA000313F0030FFE
:10402000034670B425D0AAB10C78013A03F8014BCD
:104030004CB11C4672B111F8015F013A04F8015B02
:104040002346002DF6D12AB19A18002103F8011B4E
:104050009342FBD170BC70470E4651F8044BA4F15B
:10406000013525EA040515F0803F05D1043A43F8EF
:10407000044B032AF0D8D6E73146D4E72DE9F041C6
:1040800049F22814C0F2000484B007462568AC6CDD
:10409000002C42D066681F2E1ADD44F25D14C0F277
:1040A000000424B94FF0FF3004B0BDE8F0818C204B
:1040B00003910292019300F051F80399029A019B37
:1040C00004460028EED0A86C002684E84100AC64C9
:1040D000DFB1D4F8886026B3D6F800816568012086
:1040E000022F05F1200C00FA05F046F8252048EAD9
:1040F000000246F82C3008BFD6F80431C6F800217B
:1041000004BF1843C6F8040100E06568AB1C00203A
:104110000135656044F82310C6E705F14C04AC6432
:10412000B8E744F25D10C0F200000028BAD04FF4A6
:10413000847003910292019300F010F80399029A9F
:10414000019B06460028ADD00020C6F80001C6F845
:1041500004018046C4F88860C0E700BF49F23C63B0
:104160000146C1F6FF73186800F008B849F23C63D5
:104170000146C1F6FF73186800F036BB2DE9F04F19
:1041800001F10B04162C83B0074630D924F0070444
:10419000E30F8C422CBF194643F0010100292FD1B7
:1041A000384600F0B7FAB4F5FC7F2ED24FEAD40CB3
:1041B00049F23076C1F6FF7606EBCC02D368934223
:1041C00000F01182596803F10808DA68384621F0D6
:1041D000030499681B195C68CA6044F0010491608B
:1041E0005C6000F099FA404603B0BDE8F08F002310
:1041F00010248C422CBF194643F001010029CFD076
:104200000C234FF000083B60EDE75FEA542C04BF3D
:104210004FEAD40C4FEA4C0540F08F8049F23076DB
:10422000C1F6FF7606EB8505EB689D4206D10DE0F1
:10423000002A80F25581DB689D4207D0596821F041
:1042400003010A1B0F2AF3DD0CF1FF3C0CF1010CFA
:1042500049F230723369C1F6FF7202F1080E7345FC
:1042600008BFD2F8049022D0586820F00300011B48
:104270000F2900F384810029C2F814E0C2F810E08D
:1042800066DAB0F5007F80F04E81C1084FF001087A
:1042900002EBC100891008FA01F851688568D860FE
:1042A00048EA0109C2F804909D60EB608360012236
:1042B0004FEAAC0302FA03F34B4554D819EA030F53
:1042C0000DD193402CF0030C19EA030F0CF1040CF0
:1042D00005D15B000CF1040C19EA030FF9D006EBD1
:1042E000CC09E0464846C268904207D15BE100290C
:1042F00080F28381D268904200F05581556825F0A4
:104300000305291B0F29F2DD90461319D56844F0E7
:10431000010058F8084F41F0010C50603846C3F8CE
:1043200004C0E560AC6073613361C3F80CE0C3F8AE
:1043300008E0595000F0F0F955E7BCF1040F00F225
:10434000DE804FEA941C0CF1380C4FEA4C0565E70F
:104350001A1803F108083846536843F00103536004
:1043600000F0DAF93FE7B5686B6823F0030A5445BB
:1043700004D8C4EB0A030F2B00F3A4804BF6E40926
:10438000D6F80814C1F6FF7905EB0A020131D9F815
:104390000030234408BF03F1100B06D003F580530F
:1043A0000F3323F47F6323F00F0B384659460192F5
:1043B00000F0B4F9019A411C804600F06881824205
:1043C00000F23181D9F8043042455B44C9F8043029
:1043D00000F06681D6F8081449F23070C1F6FF701B
:1043E000013117BFC2EB0802C0F808849B18C9F856
:1043F000043018F0070338461FBFC3F10802C3F5A5
:104400008053904403F1080208EB0B0308BF4FF4FC
:1044100080521B051B0DC3EB020B594600F07EF9C1
:10442000431C00F04981C8EB0001594441F00101EF
:10443000D9F80430B5424BF6E402C6F808805B4474
:10444000C1F6FF72C8F80410C9F8043018D0BAF1E8
:104450000F0F40F20B81AAF10C00696820F00700F1
:104460004FF0050C05EB000E0F2801F0010140EAAA
:1044700001016960CEF804C0CEF808C000F22081C6
:104480004BF6E402D9F82C10C1F6FF72B5688B42E6
:10449000D9F8301088BFD3624BF6E402C1F6FF7240
:1044A0008B4288BF13636A6822F003029442C4EB14
:1044B000020301D80F2B05DC38464FF0000800F04E
:1044C0002BF990E62A1943F0010344F00104384621
:1044D0006C6005F108085360B26000F01DF982E6D7
:1044E0005918DA689C6838464D6803F1080845F0A9
:1044F0000105E26094604D6000F00EF973E6BCF1D6
:10450000140F9CBF0CF15B0C4FEA4C057FF686AE96
:10451000BCF1540F00F293804FEA143C0CF16E0C86
:104520004FEA4C057AE6420A042A75D9142A9CBF40
:1045300002F15B094FEA490508D9542A00F2C98003
:104540004FEA103909F16E094FEA490506EB850576
:1045500049F23078C1F6FF78AA68AA4279D051684A
:1045600021F00301884202D292689542F7D1D068C7
:10457000D6F80490D8609A60D360836097E61D19DE
:1045800041F00106556144F00104156138465C6054
:1045900003F10808C5F80CE0C5F808E06E60695042
:1045A00000F0BAF81FE608F10108083018F0030F10
:1045B0007FF499AE4A461CF0030FA2F108010CF1FA
:1045C000FF3C00F09E8012688A42F4D072685B0063
:1045D00093423FF6C8AE002B3FF4C5AE1A4200F03E
:1045E0009580C4467BE603F108025B699A4208BFE6
:1045F0000CF1020C3FF42CAEE4E590465519D3685B
:10460000384658F8082F6968D36041F001019A6074
:10461000696000F081F8E6E54FEA901909F1380980
:104620004FEA490592E7B54249F23073C1F6FF738C
:104630003FF4C8AE9D686A6822F0030236E7BCF515
:10464000AA7F19D84FEAD43C0CF1770C4FEA4C05FD
:10465000E4E50125D8F804104FEAA909104605FA47
:1046600009F545EA0109C8F8049083E701234546A6
:10467000C8F80430002219E740F254539C450BD887
:104680004FEA944C0CF17C0C4FEA4C05C6E5B5683A
:104690006A6822F0030209E7FC254FF07E0CBDE5B5
:1046A0001105090D00297FF495AEB2680BEB0A01E4
:1046B00041F001015160E3E601214FF0000BB7E644
:1046C000384605F10801019200F08EF8019A53680E
:1046D000D6E6B2F5AA7F06D84FEAD03909F17709B4
:1046E0004FEA490532E740F25451FC258A424FF027
:1046F0007E099EBF4FEA904909F17C094FEA4905BE
:1047000024E7726822EA0302726060E75B0008F146
:10471000040863E7704700BF704700BF38B54BF629
:104720002814C1F6FF740546084600232360FDF7F0
:10473000ADFC431C00D038BD2368002BFBD02B60A0
:1047400038BD00BFF8B549F23074C1F6FF740F46AA
:104750000546FFF7DFFFA3685E6826F0030606F64E
:10476000EF73DF1B3F0B013F3F03B7F5805F07DBB4
:1047700000212846FFF7D2FFA3689B19984204D076
:104780002846FFF7C9FF0020F8BD79422846FFF709
:10479000C5FF013010D04BF6E803A168C1F6FF73E6
:1047A000F61B284646F001061A684E60D71B1F60AC
:1047B000FFF7B2FF0120F8BD00212846FFF7AEFF4A
:1047C000A368C21A0F2ADBDD49F638344BF6E8013C
:1047D000C1F6FF74C1F6FF7142F001025A6023680E
:1047E000C01A0860CCE700BF2DE9F0410E468046B4
:1047F00000295CD0FFF78EFF49F2307556F8041C93
:10480000C1F6FF75A6F1080421F00103AF68E218B4
:104810009742506820F0030067D011F0010150600A
:1048200035D000211618766816F0010F06D11B1836
:10483000906800294DD0D268C260906043F00102B8
:10484000E3506260F1B9B3F5007F32D35A0A042A0B
:104850006CD898093830410005EB810549F2307178
:10486000C1F6FF71AA68AA426BD0516821F003011A
:104870008B4202D292689542F7D1D368E360A2607E
:10488000D4609C604046BDE8F041FFF745BF56F854
:10489000086C05F1080CA41B9B19A668664543D05B
:1048A000D4F80CC0C6F80CC0CCF80860BAE7BDE874
:1048B000F081DB080121686805EBC3029B1001FA57
:1048C00003F3E260916818436860A160CC60946073
:1048D000D8E7294EB042AED16C6143F001022C61A1
:1048E000E060A0606260E350CCE7C018CB0707D45B
:1048F00056F8083CE41AC018A268E368D3609A60CE
:1049000049F63C3240F00103C1F6FF726360AC60CF
:1049100013689842B6D34BF6E4034046C1F6FF73E2
:104920001968FFF70FFFADE701217BE702F15B009C
:104930004100142A90D9542A0CD8180B6E3041002B
:104940008AE701264D688010134606FA00F00543F9
:104950004D6093E7B2F5AA7F03D8D80B77304100BA
:104960007AE740F254518A4203D8980C7C304100D7
:1049700072E7FC217E206FE73897FF1F20200000A0
:1049800000000000000000008C4900000000000052
:104990000000000000000000000000000000000017
:1049A000000302000605000705000C0900130F01B3
:1049B0000705000705000403000202020C0C0C00AE
:1049C00000000000000000000000000000000000E7
:1049D000000000000000000000000303030E0E0EA4
:1049E00000000000000000000000000000000000C7
:1049F00000000000000000000000000403000705A4
:104A000000110D013B2C031E16013226024A370409
:104A10001F17013B2C03140F010A0803141311097B
:104A20000909000000000000000000000000000074
:104A3000000000000000000000000707071111112E
:104A40000707070000000000000000000000000051
:104A50000000000000000000050400261E021E17D2
:104A6000012B200284620A563F046A50067B5C08D0
:104A7000563F0487610A2D2202211A082F271011A0
:104A8000100D0A0A0A0000000000000000000000EB
:104A9000000000000000000000000101010C0C0CEF
:104AA00010101006060600000000000000000000C4
:104AB00000000000000504000F0B01332702825F95
:104AC0000A6A4E069A750AB08912BE961FBE941CD9
:104AD000AE800FA67C0D6B4F0C7557174F401563BA
:104AE00059365D60592223230000000000000000B9
:104AF0000000000000000000000007070714141465
:104B00000F0F0F0E0E0E0A0A0A0000000000000030
:104B10000000040300251D02281F024E3904946F73
:104B20000BC19A21EDCD66FAE08EFBE08EFADA81B8
:104B3000F8CC67DBA434B48724AC8127CFBD8AEFDF
:104B4000EAD2ECE1CAD3DBDB494E500000000000A2
:104B5000000000000000000000000D0D0D121212F8
:104B60000000000C0C0C19191902020200000000D0
:104B70000000080600221A018B620B8A6508D4A87F
:104B800031FBE18DFCE99CFDEA9BFCE790FBE07CBE
:104B9000E0C572D7C38DD7B984D6B263EEC976F0BB
:104BA000BC70E3DFC8DEE4E1C0CCD58D9A9E3A3F0D
:104BB000420000000606060C0C0C09090910101032
:104BC0000909091515150606060000000000000475
:104BD0000300120E012D22026E4F06C99920FBDD43
:104BE0007FFCE790FDEC95F8E98EEEE394E8DE9C1F
:104BF000D9D5B4D6CFBAECE1C9E8D8BDDAC49BD4D4
:104C0000C9A6E0DBBEE5E8DBD8DFE0CFD9DE9EB0A9
:104C1000B8454A4F373A3B1313131313130C0C0CBC
:104C20001010100707070000000000000000000936
:104C3000070043300481590A956B0BF1C248FBDE33
:104C400077FCE56FFDEE76E2DE8BD9DAC2E9E9CDDD
:104C5000DBD9BBE8E2C8EAE0C0DFD0B2D9C9B0D244
:104C6000CEBCC6BEABC8C0B1B9C3C5C6D1D7CDD600
:104C7000DBADB4B8B7BEC43840441C1F20141414B4
:104C8000000000000000000000000000000000081C
:104C900006002119015C4305BA8513F7C644FAD70B
:104CA00057F8E05ED9D692D5DABAC9CDB1C6C8AB4D
:104CB000D5D4B5E3DEBAE0D6B4D8C9ABD3BFA8D853
:104CC000D1C5C7CCCEC6CED5A9B5BDA3AEB5A9B604
:104CD000BF97A6B38E99A19EACB490A0AB394248C1
:104CE0000000000000000000000000000101000DB5
:104CF0000A002A20026A4B06CA8D10F6BA2BF9D197
:104D00004BD4C262A5AF97C1C7A9C9CCABC9CDAAC4
:104D1000D0D0AACFCAA4C8C0A1CABDA1C1BDB5C0C8
:104D2000CAD3B5C0CBB4BEC894A0A8BDC4C8949F14
:104D3000A58697A38C9BA7798A95758A987588957F
:104D40004E5D650001010000000000000202001835
:104D500012015B3E058A5B09CA8813F4AE19F8C5D7
:104D600037CAB4538B937CA9AD90C2C49EB3B99C8F
:104D7000B4BCAFB8BFB4A4A89AA7A799A3B4BFA363
:104D8000B3BFA2B1BD9FADB88B9BA7A0ACB5D1D628
:104D9000DA70808B718593647B8C6D8393738A98B2
:104DA0006E86944350570203030000000000000980
:104DB00007001F1801594004B77C0DF2A519E3A69E
:104DC0001DE7B730B7A861ABA77AA4AC9A90A5B39A
:104DD0009BAFBDA6B7C4A5B6C29DAFBA8EA1AE7B30
:104DE00091A17D92A18195A38D9EABADB5BBB8BEBF
:104DF000C49FAEB87288995E77885D76875F798A3E
:104E0000536F814D697A21272B00000000000008B4
:104E100006003B2A028B5208AD690DDE901AE09F16
:104E20002BC1B48ADADFE0E8ECEDCDD5DB97A7B390
:104E300098A8B590A2AF8EA2AEA9B5BE9CA3AAB207
:104E4000BDC5C1CCD4CCD6DDD3DBE3C6CFD5B6C28D
:104E5000CAD1D9E0E8EDF0C0CDD457728146607078
:104E6000465E6F4E63710E111300000000000006D5
:104E700005001F170134270273510CBF7E1BC19B15
:104E800061CBD5DDD3DCE3CED8E1D0DAE1DCE4E8F8
:104E9000E5EBEFE0E7EAE0E6E9E0E8EBD5DBE1B0FF
:104EA000B7BCC4CFD8BFCED8A5B1BAB1BFC7B1C106
:104EB000CDB4C4CFC7D4DCCBD7DF8195A30B0D0E07
:104EC0001315161516170000000000000000000161
:104ED00001000A0801241C077752189A8E82CAD250
:104EE000D6C4D1D9BFCED7B6C7D1BDCCD6D6DFE5D3
:104EF000D5DEE4D6DFE5D9E1E7C7D5DCC0D0D8B64A
:104F0000C3CBA1AFB6A0ADB7A0ADB8AABBC7A4B67E
:104F1000C5A6B9C5B2C3CFB1C3CE93A7B77A8C9596
:104F2000616E761F222309090900000001010105B5
:104F300005050E0D0A392D12735C3497ABB9A2B872
:104F4000C4AFC0CCA4B7C59BB1C0A7BBC8BFCED7A8
:104F5000BCCCD5C5D2D9CBD6DEB4C6D18799A39B5C
:104F6000AEBA9FB3C096A8B3A4B9C79AB0BE8FA873
:104F7000B78AA4B489A3B487A2B2849FB0A5B7C2EC
:104F80009BADB9627279131313000000040404117D
:104F9000111112121116151139331D7388917F9951
:104FA000A899B0BE91A8B88CA4B48BA5B59AB1C08D
:104FB000A6B9C6A1AFB9B3C1CAAABDC98FA5B384EA
:104FC000A0B1839FB18BA6B68AA5B585A0B17C9A06
:104FD000AC7593A67391A5708FA37690A092A6B39B
:104FE00091A6B5899FAA282E310000000000000577
:104FF000050511111112121205050556523F708652
:1050000095758C9E7F9AAC86A1B27C99AB83A0B13A
:105010008398A693A6B293A6B28EA0AB8BA6B579C1
:1050200098AA6D8EA16D8CA06F8EA26C8B9F6989E2
:105030009D68889C69889C6E8A9D8399A9859DAD91
:10504000839DAD88A0AF5F6E770000000000000078
:1050500000000606060404040000000000003634C8
:105060002268684B6F899C7490A26E8A9D668496B4
:10507000728C9C748A97869CAA778D9B7D97A78655
:10508000A2B27895A76182975F819666869A708FA3
:10509000A27794A6718A9B7187956F8795758E9F6D
:1050A000758C9C5C6D771A1E2100000000000000CA
:1050B00000000000000000000000000000000101EE
:1050C00000060501535440606351494121667477DD
:1050D0006D85927589927486927289977490A17A7F
:1050E00094A47D92A2728C9D6C8799718996687840
:1050F0008574879763747F434D5280909ABDD0DA50
:10510000A0B8C622282C000000000000000000000B
:10511000000000000000000000000000000000008F
:10512000008A9AA1ACC2CC31373B2424211818152F
:105130001314140E0E0E3D43445F6E755E6D783C85
:10514000454A080A0A272D312E353A0E10120C0C4A
:105150000C131313272C2F191A1BB0C2CECDDDE56B
:10516000C8D9E168757F0000000000000000000061
:10517000000000000000000000000000000002032A
:1051800003C0D3DDD4E0E6646D731010100101019B
:105190000C0C0C15151500000000000000000000AC
:1051A00000000000000000000000000101010606F0
:1051B00006161616181818090A0A879BA5D1DFE5E6
:1051C000E6EBEE515A610000000000000000000014
:1051D00000000000000000000000000000000F12AE
:1051E00013444C5272777B2728261313131313137F
:1051F0000202020101011B1F221F24270A080203C9
:105200000200000000020303818E95A4B5BF39405F
:1052100043040404000000020203121517586167DA
:105220004A51560607070000000000000000000079
:105230000000000000000000000000000000070760
:10524000071B1B1B121212111111100F0C17161530
:10525000080808515A57C1D3DFADC6D240494D00A6
:105260000000000000131617B9C9D2BFC8CD6B7477
:105270007B0607070000000000000000000000009F
:10528000000000000000000000000000000000001E
:1052900000000000000000000000000101010E0EEF
:1052A0000E1313130000000D0D0D13131300000057
:1052B00000000094A7B3CCDDE5CDDDE48B9BA2001C
:1052C000000007070716161651595F838A8F1E20A4
:1052D00022010202000000000000000000000000A7
:1052E00000000000000000000000000000000000BE
:1052F000000000000001010107070710101006065A
:10530000061010100B0B0B151515080808010101EC
:10531000000000606F78CCDCE2E7ECEF5F676F06BF
:1053200006061414141111111213130303030000C1
:10533000000000000B0D0E5B6A73899FA9728791B4
:1053400023292D00000000000000000001010103DE
:1053500003030000000606061B1B1B0C0C0C0505B6
:10536000050F0F0F393D40AFC4CD414B5100000038
:105370000000000B0D0E3A41453A40440B0B0B1256
:105380001212111111101010060607000000000083
:10539000000202026C7E86D1E0E7C7D8E0B3CAD42F
:1053A0009EB5C116191C0000000000000909091073
:1053B00010100505050D0D0D1616160202020A0A3B
:1053C0000A0F0F0FBACCD6D6E2E8626D7400000067
:1053D0000000000000000202020808080F0F0F2F53
:1053E000353793A2A996AAB2323B400000000000D4
:1053F000000D1011ABC0C8CDDDE5C9D9E1C4D6DEC2
:10540000C0D2DB3D464D0000000000000202021445
:1054100014140F0F0F0A0A0A1010100B0B0B15159E
:10542000150808082C3134848D932C313400000089
:105430000000000A0A0A0E0E0E1212121B1D1F6730
:10544000757BCADCE3C9DAE27E8C940000000000C0
:10545000000B0D0F9DB5BEC4D6E0D3E1E7DDE6EB52
:10546000D3DFE439414800000000000000000002E2
:1054700002021414140D0D0D0A0A0A0F0F0F050570
:105480000500000000000000000000000000000017
:105490000000000606061111111313131F222376B4
:1054A000858FBDCDD8D6DEE2626A700000000000B4
:1054B00000010101546069C0D2DBD6DFE3EBEDEF00
:1054C000AFB6B91013150000000000000000000086
:1054D0000000000000131313141414000000000057
:1054E00000000000000000000000000000000000BC
:1054F0000000000000000606061111110000002F38
:10550000353784939E8A9AA225292B00000000013A
:10551000010000000607083B444B6F797F5C656A19
:1055200017191C000000000000000000000000002F
:10553000000000000005050510101000000000002C
:10554000000000000000000000000000000000005B
:10555000000000000000000000000000000000004B
:10556000000000000000000000000000000000003B
:10557000000405050000000000000000000000001D
:10558000000000000000000000000000FFFFFF001E
:1055900080804472617720436861726163746572D0
:1055A00073206F7220537472696E670032342D62FB
:1055B000697420436F6C6F722C206576656E20775E
:1055C000697468206C6F77206272696768746E65B1
:1055D0007373003130302500400000A000A000A00F
:1055E00000000000000000404040004000A0A0007B
:1055F000000000A0F0A0F0A00040E0C020E040804B
:10560000204080200040A040A0500040400000000A
:1056100000204040404020804040404080A040E08A
:1056200040A0004040E040400000000000408000FA
:1056300000E00000000000000040002020408080CA
:105640000040A0E0A0400040C04040E00040A0205A
:1056500040E000E0204020C000A0A0E0202000E0CA
:1056600080C020C0006080C0A04000E0204080805A
:105670000060A040A0C00040A06020C0000040002A
:10568000004000004000004080204080402000009A
:10569000E000E00000804020408000C0204000404A
:1056A0000060A0A080600040A0E0A0A000C0A0C05A
:1056B000A0C00040A080A04000C0A0A0A0C000E00A
:1056C00080C080E000E080C08080006080A0A0609A
:1056D00000A0A0E0A0A000E0404040E0002020208A
:1056E000A04000A0A0C0A0A00080808080E000A01A
:1056F000E0E0A0A00020A0E0A0800040A0A0A0408A
:1057000000C0A0C080800040A0A0A04020C0A0C0D9
:10571000A0A00060804020C000E04040404000A0C9
:10572000A0A0A0E000A0A0A0E04000A0A0E0E0A019
:1057300000A0A040A0A000A0A040404000E0204069
:1057400080E000604040406000808040202000C039
:10575000404040C00040A0000000000000000000E9
:10576000E04020000000000060A0A0600080C0A019
:10577000A0C0000060808060002060A0A0600000E9
:1057800040A0C060002040E04040000060A06020D9
:10579000C080C0A0A0A0004000C040E000200020C9
:1057A0002020C080A0C0A0A000C0404040E0000079
:1057B000A0E0A0A00000C0A0A0A0000040A0A040C9
:1057C0000000C0A0C080800060A0A0602000A0C039
:1057D0008080000060C020C00040E0404020000009
:1057E000A0A0A0600000A0A0A0400000A0A0E0A099
:1057F0000000A04040A00000A0A06020C000E02069
:1058000040E0002040C040402040404040400080F8
:10581000406040408050A0000000000000000000F8
:105820000040004040400040E080E04000204060F8
:1058300040A000009060609000A040E04040004028
:10584000400040400060C0A06020C0A000000000F8
:10585000006090D0D0906060A06000E0000050A098
:105860005000000000E02000000000E000000060A8
:10587000F0D0600000E0000000000040A040000008
:105880000040E04000E000C04080C00000C0408018
:1058900040800020400000000000A0A0A0C0807058
:1058A000D0D0505000000040000000000000204018
:1058B0000040C04040000040A04000E00000A05078
:1058C000A000008080805070108080B0102030C018
:1058D000408050B0104000408060008040A0E0A0B8
:1058E000002040A0E0A000C040A0E0A00060C0A058
:1058F000E0A000A040A0E0A0004040A0E0A0007018
:10590000A0F0A0B00040A080A0408080E0C080E077
:105910000020E0C080E00060E0C080E000A0E0C0C7
:1059200080E00080E04040E00020E04040E00040B7
:10593000E04040E000A0404040E000E050D050E0B7
:105940000050A0E0E0A0008040A0A040002040A0C7
:10595000A040004040A0A0400070E0A0A04000A0F7
:1059600040A0A0400000A040A0000060A0E0A0C0B7
:10597000008040A0A0E0002040A0A0E0004000A0E7
:10598000A0E000A000A0A0E0002000A04040008017
:10599000C0A0C0800040A0C0A0E080804060A060A7
:1059A00000204060A06000600060A0600050A06027
:1059B000A06000A00060A06000400060A060000047
:1059C00070B0A070000040A08060408040A0C06027
:1059D000002040A0C06000C040A0C06000A040A067
:1059E000C0600080404040E00020C04040E00040F7
:1059F000A04040E000A000C040E000A04060A04007
:105A00000050A0C0A0A000804040A0400020404026
:105A1000A04000400040A04000E00040A04000A0A6
:105A20000040A040004000E00040000060A0A0C096
:105A3000008040A0A060002040A0A060004000A026
:105A4000A06000A000A0A060002040A0E020C080D6
:105A500080C0A0C080A000A0E020C0FF0406C0005D
:105A6000000000006C5A0000DB5500000000200020
:105A70002100220023002400250026002700280002
:105A800029002A002B002C002D002E002F003000B2
:105A90003100320033003400350036003700380062
:105AA00039003A003B003C003D003E003F00400012
:105AB00041004200430044004500460047004800C2
:105AC00049004A004B004C004D004E004F00500072
:105AD0005100520053005400550056005700580022
